{
  "contractName": "Election",
  "abi": [
    {
      "inputs": [],
      "payable": false,
      "stateMutability": "nonpayable",
      "type": "constructor"
    },
    {
      "anonymous": false,
      "inputs": [
        {
          "indexed": false,
          "internalType": "string",
          "name": "message",
          "type": "string"
        },
        {
          "indexed": false,
          "internalType": "string",
          "name": "value",
          "type": "string"
        }
      ],
      "name": "DebugLog",
      "type": "event"
    },
    {
      "anonymous": false,
      "inputs": [
        {
          "indexed": true,
          "internalType": "address",
          "name": "_creater",
          "type": "address"
        },
        {
          "indexed": false,
          "internalType": "uint256",
          "name": "_cargoID",
          "type": "uint256"
        }
      ],
      "name": "NewCargo",
      "type": "event"
    },
    {
      "anonymous": false,
      "inputs": [
        {
          "indexed": true,
          "internalType": "address",
          "name": "_creater",
          "type": "address"
        },
        {
          "indexed": false,
          "internalType": "uint256",
          "name": "_cargoID",
          "type": "uint256"
        }
      ],
      "name": "Newperformance",
      "type": "event"
    },
    {
      "anonymous": false,
      "inputs": [
        {
          "indexed": true,
          "internalType": "uint256",
          "name": "_cargoID",
          "type": "uint256"
        },
        {
          "indexed": true,
          "internalType": "address",
          "name": "_from",
          "type": "address"
        },
        {
          "indexed": false,
          "internalType": "address",
          "name": "_to",
          "type": "address"
        }
      ],
      "name": "Transfer",
      "type": "event"
    },
    {
      "anonymous": false,
      "inputs": [
        {
          "indexed": false,
          "internalType": "string",
          "name": "message",
          "type": "string"
        },
        {
          "indexed": false,
          "internalType": "uint256",
          "name": "value",
          "type": "uint256"
        }
      ],
      "name": "persearch",
      "type": "event"
    },
    {
      "constant": true,
      "inputs": [
        {
          "internalType": "address",
          "name": "",
          "type": "address"
        }
      ],
      "name": "_authorization",
      "outputs": [
        {
          "internalType": "uint8",
          "name": "",
          "type": "uint8"
        }
      ],
      "payable": false,
      "stateMutability": "view",
      "type": "function"
    },
    {
      "constant": true,
      "inputs": [],
      "name": "_capacity",
      "outputs": [
        {
          "internalType": "uint256",
          "name": "",
          "type": "uint256"
        }
      ],
      "payable": false,
      "stateMutability": "view",
      "type": "function"
    },
    {
      "constant": true,
      "inputs": [
        {
          "internalType": "address",
          "name": "",
          "type": "address"
        },
        {
          "internalType": "uint256",
          "name": "",
          "type": "uint256"
        }
      ],
      "name": "_cargoes",
      "outputs": [
        {
          "internalType": "uint256",
          "name": "",
          "type": "uint256"
        }
      ],
      "payable": false,
      "stateMutability": "view",
      "type": "function"
    },
    {
      "constant": true,
      "inputs": [
        {
          "internalType": "address",
          "name": "",
          "type": "address"
        }
      ],
      "name": "_cargoesCount",
      "outputs": [
        {
          "internalType": "uint256",
          "name": "",
          "type": "uint256"
        }
      ],
      "payable": false,
      "stateMutability": "view",
      "type": "function"
    },
    {
      "constant": true,
      "inputs": [
        {
          "internalType": "uint256",
          "name": "",
          "type": "uint256"
        }
      ],
      "name": "_cargoesName",
      "outputs": [
        {
          "internalType": "string",
          "name": "",
          "type": "string"
        }
      ],
      "payable": false,
      "stateMutability": "view",
      "type": "function"
    },
    {
      "constant": true,
      "inputs": [
        {
          "internalType": "uint256",
          "name": "",
          "type": "uint256"
        }
      ],
      "name": "_cargotoperformance",
      "outputs": [
        {
          "internalType": "uint256",
          "name": "",
          "type": "uint256"
        }
      ],
      "payable": false,
      "stateMutability": "view",
      "type": "function"
    },
    {
      "constant": true,
      "inputs": [
        {
          "internalType": "uint256",
          "name": "",
          "type": "uint256"
        }
      ],
      "name": "_holdCargoIndex",
      "outputs": [
        {
          "internalType": "uint256",
          "name": "",
          "type": "uint256"
        }
      ],
      "payable": false,
      "stateMutability": "view",
      "type": "function"
    },
    {
      "constant": true,
      "inputs": [
        {
          "internalType": "address",
          "name": "",
          "type": "address"
        },
        {
          "internalType": "uint256",
          "name": "",
          "type": "uint256"
        }
      ],
      "name": "_holdCargoes",
      "outputs": [
        {
          "internalType": "uint256",
          "name": "",
          "type": "uint256"
        }
      ],
      "payable": false,
      "stateMutability": "view",
      "type": "function"
    },
    {
      "constant": true,
      "inputs": [
        {
          "internalType": "address",
          "name": "",
          "type": "address"
        }
      ],
      "name": "_holdCargoesCount",
      "outputs": [
        {
          "internalType": "uint256",
          "name": "",
          "type": "uint256"
        }
      ],
      "payable": false,
      "stateMutability": "view",
      "type": "function"
    },
    {
      "constant": true,
      "inputs": [
        {
          "internalType": "uint256",
          "name": "",
          "type": "uint256"
        },
        {
          "internalType": "uint256",
          "name": "",
          "type": "uint256"
        }
      ],
      "name": "_logs",
      "outputs": [
        {
          "internalType": "uint256",
          "name": "time",
          "type": "uint256"
        },
        {
          "internalType": "address",
          "name": "holder",
          "type": "address"
        }
      ],
      "payable": false,
      "stateMutability": "view",
      "type": "function"
    },
    {
      "constant": true,
      "inputs": [],
      "name": "_perforcout",
      "outputs": [
        {
          "internalType": "uint256",
          "name": "",
          "type": "uint256"
        }
      ],
      "payable": false,
      "stateMutability": "view",
      "type": "function"
    },
    {
      "constant": true,
      "inputs": [
        {
          "internalType": "uint256",
          "name": "",
          "type": "uint256"
        }
      ],
      "name": "_transferTimes",
      "outputs": [
        {
          "internalType": "uint256",
          "name": "",
          "type": "uint256"
        }
      ],
      "payable": false,
      "stateMutability": "view",
      "type": "function"
    },
    {
      "constant": true,
      "inputs": [],
      "name": "name",
      "outputs": [
        {
          "internalType": "string",
          "name": "",
          "type": "string"
        }
      ],
      "payable": false,
      "stateMutability": "view",
      "type": "function"
    },
    {
      "constant": true,
      "inputs": [
        {
          "internalType": "uint256",
          "name": "",
          "type": "uint256"
        }
      ],
      "name": "performances",
      "outputs": [
        {
          "internalType": "uint256",
          "name": "id",
          "type": "uint256"
        },
        {
          "internalType": "uint256",
          "name": "iden",
          "type": "uint256"
        },
        {
          "internalType": "uint256",
          "name": "num",
          "type": "uint256"
        },
        {
          "internalType": "uint256",
          "name": "createTime",
          "type": "uint256"
        },
        {
          "internalType": "address",
          "name": "createMan",
          "type": "address"
        },
        {
          "internalType": "string",
          "name": "className",
          "type": "string"
        },
        {
          "internalType": "uint256",
          "name": "score",
          "type": "uint256"
        }
      ],
      "payable": false,
      "stateMutability": "view",
      "type": "function"
    },
    {
      "constant": true,
      "inputs": [
        {
          "internalType": "uint256",
          "name": "",
          "type": "uint256"
        }
      ],
      "name": "productnews",
      "outputs": [
        {
          "internalType": "uint256",
          "name": "id",
          "type": "uint256"
        },
        {
          "internalType": "uint256",
          "name": "num",
          "type": "uint256"
        },
        {
          "internalType": "uint256",
          "name": "createTime",
          "type": "uint256"
        },
        {
          "internalType": "address",
          "name": "nowhold",
          "type": "address"
        },
        {
          "internalType": "address",
          "name": "createMan",
          "type": "address"
        },
        {
          "internalType": "string",
          "name": "cargoName",
          "type": "string"
        },
        {
          "internalType": "uint256",
          "name": "tranTIME",
          "type": "uint256"
        },
        {
          "internalType": "address",
          "name": "befhold",
          "type": "address"
        }
      ],
      "payable": false,
      "stateMutability": "view",
      "type": "function"
    },
    {
      "constant": true,
      "inputs": [],
      "name": "symbol",
      "outputs": [
        {
          "internalType": "string",
          "name": "",
          "type": "string"
        }
      ],
      "payable": false,
      "stateMutability": "view",
      "type": "function"
    },
    {
      "constant": true,
      "inputs": [],
      "name": "capacity",
      "outputs": [
        {
          "internalType": "uint256",
          "name": "",
          "type": "uint256"
        }
      ],
      "payable": false,
      "stateMutability": "view",
      "type": "function"
    },
    {
      "constant": true,
      "inputs": [
        {
          "internalType": "address",
          "name": "_owner",
          "type": "address"
        }
      ],
      "name": "capacityOf",
      "outputs": [
        {
          "internalType": "uint256",
          "name": "",
          "type": "uint256"
        }
      ],
      "payable": false,
      "stateMutability": "view",
      "type": "function"
    },
    {
      "constant": true,
      "inputs": [
        {
          "internalType": "uint256",
          "name": "_cargoID",
          "type": "uint256"
        }
      ],
      "name": "cargoNameOf",
      "outputs": [
        {
          "internalType": "string",
          "name": "",
          "type": "string"
        }
      ],
      "payable": false,
      "stateMutability": "view",
      "type": "function"
    },
    {
      "constant": true,
      "inputs": [
        {
          "internalType": "address",
          "name": "_user",
          "type": "address"
        }
      ],
      "name": "permissionOf",
      "outputs": [
        {
          "internalType": "uint8",
          "name": "",
          "type": "uint8"
        }
      ],
      "payable": false,
      "stateMutability": "view",
      "type": "function"
    },
    {
      "constant": true,
      "inputs": [
        {
          "internalType": "uint256",
          "name": "_cargoID",
          "type": "uint256"
        }
      ],
      "name": "transferTimesOf",
      "outputs": [
        {
          "internalType": "uint256",
          "name": "",
          "type": "uint256"
        }
      ],
      "payable": false,
      "stateMutability": "view",
      "type": "function"
    },
    {
      "constant": true,
      "inputs": [
        {
          "internalType": "uint256",
          "name": "_cargoID",
          "type": "uint256"
        }
      ],
      "name": "holderOf",
      "outputs": [
        {
          "internalType": "address",
          "name": "",
          "type": "address"
        }
      ],
      "payable": false,
      "stateMutability": "view",
      "type": "function"
    },
    {
      "constant": false,
      "inputs": [
        {
          "internalType": "uint256",
          "name": "_cargoID",
          "type": "uint256"
        }
      ],
      "name": "stuinfo",
      "outputs": [
        {
          "internalType": "string",
          "name": "cargoname",
          "type": "string"
        }
      ],
      "payable": false,
      "stateMutability": "nonpayable",
      "type": "function"
    },
    {
      "constant": true,
      "inputs": [
        {
          "internalType": "uint256",
          "name": "_cargoID",
          "type": "uint256"
        }
      ],
      "name": "tracesOf",
      "outputs": [
        {
          "internalType": "address[]",
          "name": "holders",
          "type": "address[]"
        }
      ],
      "payable": false,
      "stateMutability": "view",
      "type": "function"
    },
    {
      "constant": true,
      "inputs": [],
      "name": "allCreated",
      "outputs": [
        {
          "internalType": "uint256[]",
          "name": "cargoes",
          "type": "uint256[]"
        }
      ],
      "payable": false,
      "stateMutability": "view",
      "type": "function"
    },
    {
      "constant": true,
      "inputs": [
        {
          "internalType": "address",
          "name": "_owner",
          "type": "address"
        }
      ],
      "name": "allHolding",
      "outputs": [
        {
          "internalType": "uint256[]",
          "name": "cargoes",
          "type": "uint256[]"
        }
      ],
      "payable": false,
      "stateMutability": "view",
      "type": "function"
    },
    {
      "constant": false,
      "inputs": [
        {
          "internalType": "string",
          "name": "_cargoName",
          "type": "string"
        }
      ],
      "name": "createNewCargo",
      "outputs": [
        {
          "internalType": "uint256",
          "name": "cargoID",
          "type": "uint256"
        }
      ],
      "payable": false,
      "stateMutability": "nonpayable",
      "type": "function"
    },
    {
      "constant": false,
      "inputs": [
        {
          "internalType": "string",
          "name": "_className",
          "type": "string"
        },
        {
          "internalType": "uint256",
          "name": "_cargoID",
          "type": "uint256"
        },
        {
          "internalType": "uint256",
          "name": "_score",
          "type": "uint256"
        }
      ],
      "name": "creatNewperformance",
      "outputs": [
        {
          "internalType": "uint256",
          "name": "performanceID",
          "type": "uint256"
        }
      ],
      "payable": false,
      "stateMutability": "nonpayable",
      "type": "function"
    },
    {
      "constant": false,
      "inputs": [
        {
          "internalType": "uint256",
          "name": "_cargoID",
          "type": "uint256"
        }
      ],
      "name": "performanceOf",
      "outputs": [
        {
          "internalType": "uint256",
          "name": "num",
          "type": "uint256"
        }
      ],
      "payable": false,
      "stateMutability": "nonpayable",
      "type": "function"
    },
    {
      "constant": false,
      "inputs": [
        {
          "internalType": "address",
          "name": "_address",
          "type": "address"
        },
        {
          "internalType": "uint8",
          "name": "_state",
          "type": "uint8"
        }
      ],
      "name": "setPermission",
      "outputs": [],
      "payable": false,
      "stateMutability": "nonpayable",
      "type": "function"
    },
    {
      "constant": false,
      "inputs": [
        {
          "internalType": "uint256",
          "name": "_cargoID",
          "type": "uint256"
        },
        {
          "internalType": "address",
          "name": "_to",
          "type": "address"
        }
      ],
      "name": "transfer",
      "outputs": [
        {
          "internalType": "bool",
          "name": "success",
          "type": "bool"
        }
      ],
      "payable": false,
      "stateMutability": "nonpayable",
      "type": "function"
    }
  ],
  "bytecode": "0x608060405260008055600060015534801561001957600080fd5b5033600260006101000a81548173ffffffffffffffffffffffffffffffffffffffff021916908373ffffffffffffffffffffffffffffffffffffffff16021790555060038060003373ffffffffffffffffffffffffffffffffffffffff1673ffffffffffffffffffffffffffffffffffffffff16815260200190815260200160002060006101000a81548160ff021916908360ff160217905550613366806100c26000396000f3fe608060405234801561001057600080fd5b50600436106101e55760003560e01c80639b16b7101161010f578063dbacc237116100a2578063e1da566911610071578063e1da566914610e6d578063f11a00e414610ecf578063f400838b14610f9e578063f575fabf1461101d576101e5565b8063dbacc23714610c93578063dcbc3bb314610d01578063dd5ddfe814610dfe578063dee8327714610e4f576101e5565b8063c8e6a227116100de578063c8e6a22714610a63578063ca9527a114610b0a578063d59de55314610b69578063d6788bdf14610bec576101e5565b80639b16b71014610905578063a3aced0614610947578063a951a888146109a5578063b7760c8f146109fd576101e5565b8063650c1b271161018757806384d34f951161015657806384d34f95146106b657806386598263146107995780639218d9601461084057806395d89b4114610882576101e5565b8063650c1b271461052b578063781fc74e1461056d5780637f67a1e11461060657806382de0c4c1461065e576101e5565b806340ae6c31116101c357806340ae6c311461042b57806340d3efd4146104895780634e17f6af146104cb5780635cfc1a511461050d576101e5565b806304b5afcc146101ea57806306fdde03146103465780633b315d7e146103c9575b600080fd5b6102166004803603602081101561020057600080fd5b810190808035906020019092919050505061103b565b604051808981526020018881526020018781526020018673ffffffffffffffffffffffffffffffffffffffff1673ffffffffffffffffffffffffffffffffffffffff1681526020018573ffffffffffffffffffffffffffffffffffffffff1673ffffffffffffffffffffffffffffffffffffffff168152602001806020018481526020018373ffffffffffffffffffffffffffffffffffffffff1673ffffffffffffffffffffffffffffffffffffffff168152602001828103825285818151815260200191508051906020019080838360005b838110156103045780820151818401526020810190506102e9565b50505050905090810190601f1680156103315780820380516001836020036101000a031916815260200191505b50995050505050505050505060405180910390f35b61034e61117b565b6040518080602001828103825283818151815260200191508051906020019080838360005b8381101561038e578082015181840152602081019050610373565b50505050905090810190601f1680156103bb5780820380516001836020036101000a031916815260200191505b509250505060405180910390f35b610415600480360360408110156103df57600080fd5b81019080803573ffffffffffffffffffffffffffffffffffffffff169060200190929190803590602001909291905050506111b4565b6040518082815260200191505060405180910390f35b61046d6004803603602081101561044157600080fd5b81019080803573ffffffffffffffffffffffffffffffffffffffff1690602001909291905050506111d9565b604051808260ff1660ff16815260200191505060405180910390f35b6104b56004803603602081101561049f57600080fd5b81019080803590602001909291905050506111f9565b6040518082815260200191505060405180910390f35b6104f7600480360360208110156104e157600080fd5b8101908080359060200190929190505050611211565b6040518082815260200191505060405180910390f35b61051561122e565b6040518082815260200191505060405180910390f35b6105576004803603602081101561054157600080fd5b8101908080359060200190929190505050611237565b6040518082815260200191505060405180910390f35b6105af6004803603602081101561058357600080fd5b81019080803573ffffffffffffffffffffffffffffffffffffffff1690602001909291905050506114e2565b6040518080602001828103825283818151815260200191508051906020019060200280838360005b838110156105f25780820151818401526020810190506105d7565b505050509050019250505060405180910390f35b6106486004803603602081101561061c57600080fd5b81019080803573ffffffffffffffffffffffffffffffffffffffff1690602001909291905050506115e8565b6040518082815260200191505060405180910390f35b6106a06004803603602081101561067457600080fd5b81019080803573ffffffffffffffffffffffffffffffffffffffff169060200190929190505050611631565b6040518082815260200191505060405180910390f35b610783600480360360608110156106cc57600080fd5b81019080803590602001906401000000008111156106e957600080fd5b8201836020820111156106fb57600080fd5b8035906020019184600183028401116401000000008311171561071d57600080fd5b91908080601f016020809104026020016040519081016040528093929190818152602001838380828437600081840152601f19601f8201169050808301925050505050505091929192908035906020019092919080359060200190929190505050611649565b6040518082815260200191505060405180910390f35b6107c5600480360360208110156107af57600080fd5b8101908080359060200190929190505050611900565b6040518080602001828103825283818151815260200191508051906020019080838360005b838110156108055780820151818401526020810190506107ea565b50505050905090810190601f1680156108325780820380516001836020036101000a031916815260200191505b509250505060405180910390f35b61086c6004803603602081101561085657600080fd5b81019080803590602001909291905050506119b0565b6040518082815260200191505060405180910390f35b61088a6119c8565b6040518080602001828103825283818151815260200191508051906020019080838360005b838110156108ca5780820151818401526020810190506108af565b50505050905090810190601f1680156108f75780820380516001836020036101000a031916815260200191505b509250505060405180910390f35b6109316004803603602081101561091b57600080fd5b81019080803590602001909291905050506119db565b6040518082815260200191505060405180910390f35b6109896004803603602081101561095d57600080fd5b81019080803573ffffffffffffffffffffffffffffffffffffffff1690602001909291905050506119f3565b604051808260ff1660ff16815260200191505060405180910390f35b6109e7600480360360208110156109bb57600080fd5b81019080803573ffffffffffffffffffffffffffffffffffffffff169060200190929190505050611a49565b6040518082815260200191505060405180910390f35b610a4960048036036040811015610a1357600080fd5b8101908080359060200190929190803573ffffffffffffffffffffffffffffffffffffffff169060200190929190505050611a61565b604051808215151515815260200191505060405180910390f35b610a8f60048036036020811015610a7957600080fd5b81019080803590602001909291905050506120a2565b6040518080602001828103825283818151815260200191508051906020019080838360005b83811015610acf578082015181840152602081019050610ab4565b50505050905090810190601f168015610afc5780820380516001836020036101000a031916815260200191505b509250505060405180910390f35b610b12612157565b6040518080602001828103825283818151815260200191508051906020019060200280838360005b83811015610b55578082015181840152602081019050610b3a565b505050509050019250505060405180910390f35b610b9560048036036020811015610b7f57600080fd5b810190808035906020019092919050505061225e565b6040518080602001828103825283818151815260200191508051906020019060200280838360005b83811015610bd8578082015181840152602081019050610bbd565b505050509050019250505060405180910390f35b610c1860048036036020811015610c0257600080fd5b810190808035906020019092919050505061240b565b6040518080602001828103825283818151815260200191508051906020019080838360005b83811015610c58578082015181840152602081019050610c3d565b50505050905090810190601f168015610c855780820380516001836020036101000a031916815260200191505b509250505060405180910390f35b610cbf60048036036020811015610ca957600080fd5b810190808035906020019092919050505061275a565b604051808273ffffffffffffffffffffffffffffffffffffffff1673ffffffffffffffffffffffffffffffffffffffff16815260200191505060405180910390f35b610d2d60048036036020811015610d1757600080fd5b81019080803590602001909291905050506127be565b604051808881526020018781526020018681526020018581526020018473ffffffffffffffffffffffffffffffffffffffff1673ffffffffffffffffffffffffffffffffffffffff16815260200180602001838152602001828103825284818151815260200191508051906020019080838360005b83811015610dbd578082015181840152602081019050610da2565b50505050905090810190601f168015610dea5780820380516001836020036101000a031916815260200191505b509850505050505050505060405180910390f35b610e4d60048036036040811015610e1457600080fd5b81019080803573ffffffffffffffffffffffffffffffffffffffff169060200190929190803560ff1690602001909291905050506128b8565b005b610e576129df565b6040518082815260200191505060405180910390f35b610eb960048036036040811015610e8357600080fd5b81019080803573ffffffffffffffffffffffffffffffffffffffff169060200190929190803590602001909291905050506129e5565b6040518082815260200191505060405180910390f35b610f8860048036036020811015610ee557600080fd5b8101908080359060200190640100000000811115610f0257600080fd5b820183602082011115610f1457600080fd5b80359060200191846001830284011164010000000083111715610f3657600080fd5b91908080601f016020809104026020016040519081016040528093929190818152602001838380828437600081840152601f19601f820116905080830192505050505050509192919290505050612a0a565b6040518082815260200191505060405180910390f35b610fd460048036036040811015610fb457600080fd5b810190808035906020019092919080359060200190929190505050612f23565b604051808381526020018273ffffffffffffffffffffffffffffffffffffffff1673ffffffffffffffffffffffffffffffffffffffff1681526020019250505060405180910390f35b611025612f74565b6040518082815260200191505060405180910390f35b600d6020528060005260406000206000915090508060000154908060010154908060020154908060030160009054906101000a900473ffffffffffffffffffffffffffffffffffffffff16908060040160009054906101000a900473ffffffffffffffffffffffffffffffffffffffff1690806005018054600181600116156101000203166002900480601f0160208091040260200160405190810160405280929190818152602001828054600181600116156101000203166002900480156111455780601f1061111a57610100808354040283529160200191611145565b820191906000526020600020905b81548152906001019060200180831161112857829003601f168201915b5050505050908060060154908060070160009054906101000a900473ffffffffffffffffffffffffffffffffffffffff16905088565b6040518060400160405280600681526020017f616e44415050000000000000000000000000000000000000000000000000000081525081565b6005602052816000526040600020602052806000526040600020600091509150505481565b60036020528060005260406000206000915054906101000a900460ff1681565b600c6020528060005260406000206000915090505481565b6000600b6000838152602001908152602001600020549050919050565b60008054905090565b600080600360003373ffffffffffffffffffffffffffffffffffffffff1673ffffffffffffffffffffffffffffffffffffffff16815260200190815260200160002060009054906101000a900460ff169050600080600090505b60005481116112f3576000600d6000838152602001908152602001600020905085816001015414156112e5578060030160009054906101000a900473ffffffffffffffffffffffffffffffffffffffff1692505b508080600101915050611291565b5060008260ff16118061133157503373ffffffffffffffffffffffffffffffffffffffff168173ffffffffffffffffffffffffffffffffffffffff16145b6113a3576040517f08c379a00000000000000000000000000000000000000000000000000000000081526004018080602001828103825260098152602001807fe69caae68e88e69d83000000000000000000000000000000000000000000000081525060200191505060405180910390fd5b6000600e6000808152602001908152602001600020905060008090505b60015481116114d25785600e60008381526020019081526020016000206002015414156114c557600e600082815260200190815260200160002091507ffd031b23300dabcf86e7220ec8ed2ee95ab6bc8434b500a3ff20355081d313e582600501836006015460405180806020018381526020018281038252848181546001816001161561010002031660029004815260200191508054600181600116156101000203166002900480156114b55780601f1061148a576101008083540402835291602001916114b5565b820191906000526020600020905b81548152906001019060200180831161149857829003601f168201915b5050935050505060405180910390a15b80806001019150506113c0565b5080600201549350505050919050565b60606000600960008473ffffffffffffffffffffffffffffffffffffffff1673ffffffffffffffffffffffffffffffffffffffff168152602001908152602001600020549050806040519080825280602002602001820160405280156115575781602001602082028038833980820191505090505b50915060008090505b818110156115e157600760008573ffffffffffffffffffffffffffffffffffffffff1673ffffffffffffffffffffffffffffffffffffffff1681526020019081526020016000206000600183018152602001908152602001600020548382815181106115c857fe5b6020026020010181815250508080600101915050611560565b5050919050565b6000600660008373ffffffffffffffffffffffffffffffffffffffff1673ffffffffffffffffffffffffffffffffffffffff168152602001908152602001600020549050919050565b60096020528060005260406000206000915090505481565b600080600360003373ffffffffffffffffffffffffffffffffffffffff1673ffffffffffffffffffffffffffffffffffffffff16815260200190815260200160002060009054906101000a900460ff16905060008160ff1611611714576040517f08c379a00000000000000000000000000000000000000000000000000000000081526004018080602001828103825260098152602001807fe69caae68e88e69d83000000000000000000000000000000000000000000000081525060200191505060405180910390fd5b6402540be40033600154604051602001808373ffffffffffffffffffffffffffffffffffffffff1673ffffffffffffffffffffffffffffffffffffffff1660601b8152601401828152602001925050506040516020818303038152906040528051906020012060001c8161178457fe5b06915060016000815480929190600101919050555083600c6000848152602001908152602001600020819055503373ffffffffffffffffffffffffffffffffffffffff167fa164b20f3bf4855aac509d5e486fda2cbbdcfa6224b39fc41b4f8d9dff353805856040518082815260200191505060405180910390a26040518060e0016040528060015481526020018381526020018581526020014281526020013373ffffffffffffffffffffffffffffffffffffffff16815260200186815260200184815250600e600060015481526020019081526020016000206000820151816000015560208201518160010155604082015181600201556060820151816003015560808201518160040160006101000a81548173ffffffffffffffffffffffffffffffffffffffff021916908373ffffffffffffffffffffffffffffffffffffffff16021790555060a08201518160050190805190602001906118ea9291906131dc565b5060c08201518160060155905050509392505050565b60046020528060005260406000206000915090508054600181600116156101000203166002900480601f0160208091040260200160405190810160405280929190818152602001828054600181600116156101000203166002900480156119a85780601f1061197d576101008083540402835291602001916119a8565b820191906000526020600020905b81548152906001019060200180831161198b57829003601f168201915b505050505081565b60086020528060005260406000206000915090505481565b6040518060200160405280600081525081565b600b6020528060005260406000206000915090505481565b6000600360008373ffffffffffffffffffffffffffffffffffffffff1673ffffffffffffffffffffffffffffffffffffffff16815260200190815260200160002060009054906101000a900460ff169050919050565b60066020528060005260406000206000915090505481565b600080600360003373ffffffffffffffffffffffffffffffffffffffff1673ffffffffffffffffffffffffffffffffffffffff16815260200190815260200160002060009054906101000a900460ff16905060008160ff1611611b2c576040517f08c379a00000000000000000000000000000000000000000000000000000000081526004018080602001828103825260188152602001807fe99d9ee59088e6b395e8aea4e8af81e88081e5b888efbc81000000000000000081525060200191505060405180910390fd5b6000600b60008681526020019081526020016000205490506000600a6000878152602001908152602001600020600083815260200190815260200160002060010160009054906101000a900473ffffffffffffffffffffffffffffffffffffffff169050600073ffffffffffffffffffffffffffffffffffffffff168173ffffffffffffffffffffffffffffffffffffffff161415611c33576040517f08c379a000000000000000000000000000000000000000000000000000000000815260040180806020018281038252600f8152602001807fe697a0e69588e59cb0e59d80efbc81000000000000000000000000000000000081525060200191505060405180910390fd5b3373ffffffffffffffffffffffffffffffffffffffff168173ffffffffffffffffffffffffffffffffffffffff1614611cd4576040517f08c379a000000000000000000000000000000000000000000000000000000000815260040180806020018281038252601b8152602001807fe99d9ee5bd93e5898de5ada6e7949fe68ba5e69c89e88085efbc81000000000081525060200191505060405180910390fd5b8473ffffffffffffffffffffffffffffffffffffffff168173ffffffffffffffffffffffffffffffffffffffff161415611d76576040517f08c379a00000000000000000000000000000000000000000000000000000000081526004018080602001828103825260188152602001807fe4b88de883bde8bdace7a7bbe7bb99e887aae5b7b1efbc81000000000000000081525060200191505060405180910390fd5b600073ffffffffffffffffffffffffffffffffffffffff168573ffffffffffffffffffffffffffffffffffffffff161415611e19576040517f08c379a000000000000000000000000000000000000000000000000000000000815260040180806020018281038252600f8152602001807fe697a0e69588e59cb0e59d80efbc81000000000000000000000000000000000081525060200191505060405180910390fd5b600b60008781526020019081526020016000206000815480929190600101919050555060405180604001604052804281526020018673ffffffffffffffffffffffffffffffffffffffff16815250600a600088815260200190815260200160002060006001850181526020019081526020016000206000820151816000015560208201518160010160006101000a81548173ffffffffffffffffffffffffffffffffffffffff021916908373ffffffffffffffffffffffffffffffffffffffff160217905550905050611eec3387612f7a565b611ef685876130d1565b8073ffffffffffffffffffffffffffffffffffffffff16867f0a429aba3d89849a2db0153e4534d95c46a1d83c8109d73893f55ebc44010ff487604051808273ffffffffffffffffffffffffffffffffffffffff1673ffffffffffffffffffffffffffffffffffffffff16815260200191505060405180910390a3600080905060008090505b6000548111611fba576000600d600083815260200190815260200160002090508881600101541415611fac578192505b508080600101915050611f7c565b506000811415611fc957600080fd5b6000600d600083815260200190815260200160002090508060030160009054906101000a900473ffffffffffffffffffffffffffffffffffffffff168160070160006101000a81548173ffffffffffffffffffffffffffffffffffffffff021916908373ffffffffffffffffffffffffffffffffffffffff160217905550868160030160006101000a81548173ffffffffffffffffffffffffffffffffffffffff021916908373ffffffffffffffffffffffffffffffffffffffff16021790555042816006018190555060019550505050505092915050565b6060600460008381526020019081526020016000208054600181600116156101000203166002900480601f01602080910402602001604051908101604052809291908181526020018280546001816001161561010002031660029004801561214b5780601f106121205761010080835404028352916020019161214b565b820191906000526020600020905b81548152906001019060200180831161212e57829003601f168201915b50505050509050919050565b606060003390506000600660008373ffffffffffffffffffffffffffffffffffffffff1673ffffffffffffffffffffffffffffffffffffffff168152602001908152602001600020549050806040519080825280602002602001820160405280156121d15781602001602082028038833980820191505090505b50925060008090505b8181101561225857600560008473ffffffffffffffffffffffffffffffffffffffff1673ffffffffffffffffffffffffffffffffffffffff16815260200190815260200160002060008281526020019081526020016000205484828151811061223f57fe5b60200260200101818152505080806001019150506121da565b50505090565b60606000600b6000848152602001908152602001600020549050600181016040519080825280602002602001820160405280156122aa5781602001602082028038833980820191505090505b5091506060600182016040519080825280602002602001820160405280156122e15781602001602082028038833980820191505090505b50905060008090505b828111612400576122f961325c565b600a60008781526020019081526020016000206000838152602001908152602001600020604051806040016040529081600082015481526020016001820160009054906101000a900473ffffffffffffffffffffffffffffffffffffffff1673ffffffffffffffffffffffffffffffffffffffff1673ffffffffffffffffffffffffffffffffffffffff16815250509050806020015185838151811061239b57fe5b602002602001019073ffffffffffffffffffffffffffffffffffffffff16908173ffffffffffffffffffffffffffffffffffffffff168152505080600001518383815181106123e657fe5b6020026020010181815250505080806001019150506122ea565b508292505050919050565b60606000600360003373ffffffffffffffffffffffffffffffffffffffff1673ffffffffffffffffffffffffffffffffffffffff16815260200190815260200160002060009054906101000a900460ff1690506000809050600080600d6000808152602001908152602001600020905060008090505b60005481116125dc57600d6000828152602001908152602001600020915086826001015414156125cf578160030160009054906101000a900473ffffffffffffffffffffffffffffffffffffffff1692508093507fda35011b2ef2956689f7e063cd6e02cd622181442af1422729316c724bb8a78f82600501604051808060200180602001838103835260098152602001807f636172676f4e616d6500000000000000000000000000000000000000000000008152506020018381038252848181546001816001161561010002031660029004815260200191508054600181600116156101000203166002900480156125bb5780601f10612590576101008083540402835291602001916125bb565b820191906000526020600020905b81548152906001019060200180831161259e57829003601f168201915b5050935050505060405180910390a16125dc565b8080600101915050612481565b5060008460ff16118061261a57503373ffffffffffffffffffffffffffffffffffffffff168273ffffffffffffffffffffffffffffffffffffffff16145b61268c576040517f08c379a00000000000000000000000000000000000000000000000000000000081526004018080602001828103825260098152602001807fe69caae68e88e69d83000000000000000000000000000000000000000000000081525060200191505060405180910390fd5b600083141561269a57600080fd5b6000600d60008581526020019081526020016000209050806005018054600181600116156101000203166002900480601f0160208091040260200160405190810160405280929190818152602001828054600181600116156101000203166002900480156127495780601f1061271e57610100808354040283529160200191612749565b820191906000526020600020905b81548152906001019060200180831161272c57829003601f168201915b505050505095505050505050919050565b6000600a60008381526020019081526020016000206000600b600085815260200190815260200160002054815260200190815260200160002060010160009054906101000a900473ffffffffffffffffffffffffffffffffffffffff169050919050565b600e6020528060005260406000206000915090508060000154908060010154908060020154908060030154908060040160009054906101000a900473ffffffffffffffffffffffffffffffffffffffff1690806005018054600181600116156101000203166002900480601f0160208091040260200160405190810160405280929190818152602001828054600181600116156101000203166002900480156128a85780601f1061287d576101008083540402835291602001916128a8565b820191906000526020600020905b81548152906001019060200180831161288b57829003601f168201915b5050505050908060060154905087565b6000600360003373ffffffffffffffffffffffffffffffffffffffff1673ffffffffffffffffffffffffffffffffffffffff16815260200190815260200160002060009054906101000a900460ff16905060018160ff1611612982576040517f08c379a00000000000000000000000000000000000000000000000000000000081526004018080602001828103825260098152602001807fe69caae68e88e69d83000000000000000000000000000000000000000000000081525060200191505060405180910390fd5b81600360008573ffffffffffffffffffffffffffffffffffffffff1673ffffffffffffffffffffffffffffffffffffffff16815260200190815260200160002060006101000a81548160ff021916908360ff160217905550505050565b60005481565b6007602052816000526040600020602052806000526040600020600091509150505481565b600080600360003373ffffffffffffffffffffffffffffffffffffffff1673ffffffffffffffffffffffffffffffffffffffff16815260200190815260200160002060009054906101000a900460ff16905060018160ff1611612ad5576040517f08c379a00000000000000000000000000000000000000000000000000000000081526004018080602001828103825260098152602001807fe69caae68e88e69d83000000000000000000000000000000000000000000000081525060200191505060405180910390fd5b6000600660003373ffffffffffffffffffffffffffffffffffffffff1673ffffffffffffffffffffffffffffffffffffffff1681526020019081526020016000205490506402540be4003382600054604051602001808473ffffffffffffffffffffffffffffffffffffffff1673ffffffffffffffffffffffffffffffffffffffff1660601b815260140183815260200182815260200193505050506040516020818303038152906040528051906020012060001c81612b9157fe5b06925082600560003373ffffffffffffffffffffffffffffffffffffffff1673ffffffffffffffffffffffffffffffffffffffff16815260200190815260200160002060008381526020019081526020016000208190555083600460008581526020019081526020016000209080519060200190612c1092919061328c565b5060405180604001604052804281526020013373ffffffffffffffffffffffffffffffffffffffff16815250600a600085815260200190815260200160002060008081526020019081526020016000206000820151816000015560208201518160010160006101000a81548173ffffffffffffffffffffffffffffffffffffffff021916908373ffffffffffffffffffffffffffffffffffffffff160217905550905050612cbe33846130d1565b3373ffffffffffffffffffffffffffffffffffffffff167faf66726c2d2cd5206e1190733dd4fcc83cf47ec46691e7e2a98a54a22e9ef497846040518082815260200191505060405180910390a2600660003373ffffffffffffffffffffffffffffffffffffffff1673ffffffffffffffffffffffffffffffffffffffff16815260200190815260200160002060008154809291906001019190505550600080815480929190600101919050555060405180610100016040528060005481526020018481526020014281526020013373ffffffffffffffffffffffffffffffffffffffff1681526020013373ffffffffffffffffffffffffffffffffffffffff168152602001858152602001600081526020013373ffffffffffffffffffffffffffffffffffffffff16815250600d60008054815260200190815260200160002060008201518160000155602082015181600101556040820151816002015560608201518160030160006101000a81548173ffffffffffffffffffffffffffffffffffffffff021916908373ffffffffffffffffffffffffffffffffffffffff16021790555060808201518160040160006101000a81548173ffffffffffffffffffffffffffffffffffffffff021916908373ffffffffffffffffffffffffffffffffffffffff16021790555060a0820151816005019080519060200190612ec79291906131dc565b5060c0820151816006015560e08201518160070160006101000a81548173ffffffffffffffffffffffffffffffffffffffff021916908373ffffffffffffffffffffffffffffffffffffffff1602179055509050505050919050565b600a602052816000526040600020602052806000526040600020600091509150508060000154908060010160009054906101000a900473ffffffffffffffffffffffffffffffffffffffff16905082565b60015481565b6000600960008473ffffffffffffffffffffffffffffffffffffffff1673ffffffffffffffffffffffffffffffffffffffff168152602001908152602001600020549050600060086000848152602001908152602001600020549050600760008573ffffffffffffffffffffffffffffffffffffffff1673ffffffffffffffffffffffffffffffffffffffff168152602001908152602001600020600083815260200190815260200160002054600760008673ffffffffffffffffffffffffffffffffffffffff1673ffffffffffffffffffffffffffffffffffffffff168152602001908152602001600020600083815260200190815260200160002081905550600960008573ffffffffffffffffffffffffffffffffffffffff1673ffffffffffffffffffffffffffffffffffffffff168152602001908152602001600020600081548092919060019003919050555050505050565b6000600960008473ffffffffffffffffffffffffffffffffffffffff1673ffffffffffffffffffffffffffffffffffffffff16815260200190815260200160002054905060018101600860008481526020019081526020016000208190555081600760008573ffffffffffffffffffffffffffffffffffffffff1673ffffffffffffffffffffffffffffffffffffffff168152602001908152602001600020600060018401815260200190815260200160002081905550600960008473ffffffffffffffffffffffffffffffffffffffff1673ffffffffffffffffffffffffffffffffffffffff16815260200190815260200160002060008154809291906001019190505550505050565b828054600181600116156101000203166002900490600052602060002090601f016020900481019282601f1061321d57805160ff191683800117855561324b565b8280016001018555821561324b579182015b8281111561324a57825182559160200191906001019061322f565b5b509050613258919061330c565b5090565b604051806040016040528060008152602001600073ffffffffffffffffffffffffffffffffffffffff1681525090565b828054600181600116156101000203166002900490600052602060002090601f016020900481019282601f106132cd57805160ff19168380011785556132fb565b828001600101855582156132fb579182015b828111156132fa5782518255916020019190600101906132df565b5b509050613308919061330c565b5090565b61332e91905b8082111561332a576000816000905550600101613312565b5090565b9056fea265627a7a72315820e239733de68883dfee64d4505a7b02f1e41d4daea96f6deff08de1b9d2ee031264736f6c63430005100032",
  "source": "pragma solidity ^0.5.0;\n\ncontract Election{\n    string public constant name = \"anDAPP\";\n    string public constant symbol = \"\";\n    //\n    uint256 public _capacity = 0;\n    //\n    uint256 public _perforcout = 0;\n    //\n    address private _founder;\n\n    //-\n    mapping (address => uint8) public _authorization;\n    mapping (uint256 => string) public _cargoesName;\n    mapping (address => mapping (uint256 => uint256)) public _cargoes;\n    mapping (address => uint256) public _cargoesCount;\n    mapping (address => mapping (uint256 => uint256)) public _holdCargoes;\n    mapping (uint256 => uint256) public _holdCargoIndex;\n    mapping (address => uint256) public _holdCargoesCount;\n    mapping (uint256 => mapping (uint256 => Log)) public _logs;\n    mapping (uint256 => uint256) public _transferTimes;\n    mapping (uint256 => uint256) public _cargotoperformance;\n\n    //\n    event NewCargo(address indexed _creater, uint256 _cargoID);\n    event Transfer(uint256 indexed _cargoID, address indexed _from, address _to);\n    event Newperformance(address indexed _creater, uint256 _cargoID);\n   \n\n    //\n    struct Log {\n        uint256 time;\n        address holder;\n    }\n    \n   mapping (uint => productnew) public productnews;//\n\n    //\n    struct productnew{\n         uint id;\n         \n         uint num;//- \n         uint createTime;//\n         address  nowhold;//\n         address  createMan;//\n         string cargoName;//\n       \n         uint tranTIME;//\n         address  befhold;//\n          \n    }\n\n    mapping (uint => performance) public performances;//\n    //\n    struct performance{\n         uint id;\n         uint iden; //\n         \n         uint num;//- \n         uint createTime;//\n         address  createMan;//\n         string className;//\n         uint score;//\n\n    }\n\n    //\n    constructor () public {\n        _founder = msg.sender;\n        _authorization[msg.sender] = 3;\n    }\n\n    //\n    function capacity () public view returns (uint256) { return _capacity; }\n   //\n    function capacityOf (address _owner) public view returns (uint256) { return _cargoesCount[_owner]; }\n    //ID\n    function cargoNameOf (uint256 _cargoID) public view returns (string memory) { return _cargoesName[_cargoID]; }\n    //\n    function permissionOf (address _user) public view returns (uint8) { return _authorization[_user]; }\n    //ID\n    function transferTimesOf (uint256 _cargoID) public view returns (uint256) {\n        return _transferTimes[_cargoID];\n    }\n\n\n     \n    //ID\n      \n    function holderOf (uint256 _cargoID) public view returns (address) {\n        return _logs[_cargoID][_transferTimes[_cargoID]].holder;\n    }\n    \n    event DebugLog(string message, string value);\n    function stuinfo(uint256 _cargoID) public returns (string memory cargoname){\n        uint8 authorization1 = _authorization[msg.sender];    \n        uint littleID=0;\n        address authorization2;\n        productnew storage productTemp=productnews[0];\n        for(uint i=0;i<=_capacity;i++){\n            productTemp = productnews[i];\n            if(productTemp.num== _cargoID){\n                authorization2=productTemp.nowhold;\n                littleID=i;\n                emit DebugLog(\"cargoName\", productTemp.cargoName);\n                break;\n            }\n        }\n        \n        require(authorization1 > 0||authorization2==msg.sender, \"\");\n        require(littleID!=0);\n        productnew storage productnewa = productnews[littleID];\n        return productnewa.cargoName;\n    }\n     \n    //ID   \n    function tracesOf (uint256 _cargoID) public view returns ( address[] memory holders) {\n        uint256 transferTime = _transferTimes[_cargoID];\n        holders = new address[](transferTime + 1);\n        uint256[] memory times;\n        times = new uint256[](transferTime + 1);\n        for (uint256 i = 0; i <= transferTime; i++) {\n            Log memory log = _logs[_cargoID][i];\n            holders[i] = log.holder;\n            times[i] = log.time;\n        }\n        return holders;\n    }\n\n\n     \n    //\n     \n    function allCreated () public view returns (uint256[] memory cargoes) {\n\n         address _creater= msg.sender;\n        uint256 count = _cargoesCount[_creater];\n        cargoes = new uint256[](count);\n        for (uint256 i = 0; i < count; i++) {\n            cargoes[i] = _cargoes[_creater][i];\n        }\n    }\n\n\n     \n    //\n     \n    function allHolding (address _owner) public view returns (uint256[] memory cargoes) {\n        uint256 count = _holdCargoesCount[_owner];\n        cargoes = new uint256[](count);\n        for (uint256 i = 0; i < count; i++) {\n            cargoes[i] = _holdCargoes[_owner][i + 1];\n        }\n    }\n\n\n\n     \n    //-ID\n     \n    function createNewCargo (string memory _cargoName) public returns (uint256 cargoID) {\n        uint8 authorization = _authorization[msg.sender];\n        require(authorization > 1, \"\");\n        uint256 count = _cargoesCount[msg.sender];\n     \n        //ID\n        cargoID = uint(keccak256(abi.encodePacked(msg.sender, count, _capacity)))%10000000000;\n   \n         _cargoes[msg.sender][count] = cargoID;\n        //\n        _cargoesName[cargoID] = _cargoName;\n        //-\n        _logs[cargoID][0] = Log({\n            time: block.timestamp,\n            holder: msg.sender\n        });\n        _addToHolder(msg.sender, cargoID);\n        emit NewCargo(msg.sender, cargoID);\n        _cargoesCount[msg.sender]++;\n \n       _capacity++;\n          // -\n        productnews[_capacity] = productnew( _capacity,cargoID, now, msg.sender, msg.sender,_cargoName,0,msg.sender);   \n    }\n\n    function creatNewperformance (string memory _className,uint256 _cargoID,uint _score) public returns (uint256 performanceID) {\n        uint8 authorization = _authorization[msg.sender];\n        require(authorization > 0, \"\");\n        performanceID = uint(keccak256(abi.encodePacked(msg.sender, _perforcout)))%10000000000;\n        _perforcout++;\n        _cargotoperformance[performanceID]=_cargoID;\n        emit Newperformance(msg.sender, _cargoID);\n        performances[_perforcout] = performance( _perforcout,performanceID,_cargoID, now,msg.sender, _className,_score);\n    }\n\n    event persearch(string message, uint value);\n    function performanceOf (uint256 _cargoID) public returns (uint num) {\n        uint8 authorization1 = _authorization[msg.sender];\n        address authorization2;\n        for(uint i=0;i<=_capacity;i++){\n            productnew storage productTemp = productnews[i];\n            if(productTemp.num== _cargoID){\n                authorization2=productTemp.nowhold;\n            }\n        }\n        require(authorization1 > 0||authorization2==msg.sender, \"\");\n        performance storage pertemp = performances[0];\n        for(uint i=0;i<=_perforcout;i++){\n            if(performances[i].num==_cargoID){\n                pertemp = performances[i];\n                emit persearch(pertemp.className, pertemp.score);\n            }\n        }\n        return (pertemp.num);   \n        \n    }\n\n\n\n    //\n    function setPermission (address _address, uint8 _state) public {\n           uint8 authorization = _authorization[msg.sender];\n           require(authorization > 1, \"\");\n            _authorization[_address] = _state;//012\n     }\n\n\n\n\n    //-\n\n    function transfer (uint256 _cargoID, address _to) public returns (bool success) {\n        uint8 authorization = _authorization[msg.sender];\n        require(authorization > 0, \"\");\n        uint256 transferTime = _transferTimes[_cargoID];\n        address holder = _logs[_cargoID][transferTime].holder;\n        //   \n        require(holder != address(0), \"\");\n        //  \n        require(holder == msg.sender, \"\");\n        //  \n        require(holder != _to, \"\");\n        // \n        require(_to != address(0), \"\");\n\n        // \n        _transferTimes[_cargoID]++;\n        _logs[_cargoID][transferTime + 1] = Log({\n            time: block.timestamp,\n            holder: _to\n        });\n       // \n        _removeFromHolder(msg.sender, _cargoID);\n        _addToHolder(_to, _cargoID);\n        //emitEvent`transactionReceipt`\n        emit Transfer(_cargoID, holder, _to);\n\n        //\n        uint littleID=0;\n        for(uint i=0;i<=_capacity;i++){\n            productnew storage productTemp = productnews[i];\n            if(productTemp.num== _cargoID){\n                 littleID=i;\n            }\n        }\n        require(littleID!=0);\n         productnew storage productnewa = productnews[littleID];\n         productnewa.befhold= productnewa.nowhold ;//\n         \n         productnewa.nowhold=_to;\n         productnewa.tranTIME=now;\n        \n        \n        return true;\n    }\n\n\n     \n    //_cargoID--ID\n     \n    function _removeFromHolder (address _oriHolder, uint256 _cargoID) private {\n        uint256 count = _holdCargoesCount[_oriHolder];\n        uint256 index = _holdCargoIndex[_cargoID];\n        _holdCargoes[_oriHolder][index] = _holdCargoes[_oriHolder][count];\n        _holdCargoesCount[_oriHolder]--;\n    }\n\n\n\n     \n    //_cargoID--_newHolder\n     \n    function _addToHolder (address _newHolder, uint256 _cargoID) private {\n        uint256 count = _holdCargoesCount[_newHolder];\n        _holdCargoIndex[_cargoID] = count + 1;\n        _holdCargoes[_newHolder][count + 1] = _cargoID;\n        _holdCargoesCount[_newHolder]++;\n    }\n\n}\n",
  "sourcePath": "E:\\Code\\eth\\student_management\\contracts\\Election.sol",
  "compiler": {
    "name": "solc",
    "version": "0.5.16+commit.9c3226ce.Emscripten.clang"
  },
  "schemaVersion": "3.4.16",
  "updatedAt": "2024-12-27T09:58:23.710Z",
  "networkType": "ethereum",
  "devdoc": {
    "methods": {}
  },
  "userdoc": {
    "methods": {}
  }
}